:100000003AC054C053C052C051C050C04FC04EC07F
:100010004DC0E6C04BC04AC049C048C047C046C0FA
:1000200045C044C043C000000000000000000003C1
:100030000405000000000000000001020408102078
:10004000408001020408102001020408102004046A
:100050000404040404040202020202020303030370
:1000600003030000000038003500320000000000EB
:1000700037003400310011241FBECFE5D4E0DEBFCD
:10008000CDBF10E0A0E6B0E0E8E6F3E002C00590E6
:100090000D92A236B107D9F710E0A2E6B0E001C098
:1000A0001D92AB36B107E1F754D15CC1A9CF61E035
:1000B0008091600027C0CF93DF93C0E6D0E061E07D
:1000C000888158D068EE73E080E090E0FED060E078
:1000D000888150D068EE73E080E090E0DF91CF91AE
:1000E000F4C0843039F0853049F0833051F48FB555
:1000F0008F7702C08FB58F7D8FBD089585B58F7DB9
:1001000085BD0895CF93DF9390E0FC01E65CFF4F3F
:100110004491FC01E25BFF4F8491882341F190E020
:10012000880F991FFC01E459FF4F25913491D901A3
:100130008E599F4FFC0185919491C82FD92F9FB75D
:10014000F8948C91611106C0409584238C9388812A
:10015000842308C0623041F4242F209582238C939D
:100160008881842B888302C0842B8C939FBFDF916E
:10017000CF9108950F931F93CF93DF931F92CDB725
:10018000DEB7282F30E0F901EA5DFF4F8491F901D5
:10019000E65CFF4F1491F901E25BFF4F04910023ED
:1001A000C9F0882319F069839CDF6981E02FF0E0B2
:1001B000EE0FFF1FEE59FF4F85919491DC019FB721
:1001C000F8948C91611103C01095812301C0812B9B
:1001D0008C939FBF0F90DF91CF911F910F91089546
:1001E0001F920F920FB60F9211242F933F938F936C
:1001F0009F93AF93BF938091620090916300A09111
:100200006400B091650030916A00232F2A5F2D377A
:1002100020F40296A11DB11D05C0232F2757039678
:10022000A11DB11D20936A0080936200909363002A
:10023000A0936400B0936500809166009091670080
:10024000A0916800B09169000196A11DB11D809335
:10025000660090936700A0936800B0936900BF9117
:10026000AF919F918F913F912F910F900FBE0F9063
:100270001F9018950F931F939FB7F89400916600F5
:1002800010916700209168003091690082B708B62C
:1002900000FE06C08F3F21F00F5F1F4F2F4F3F4FD3
:1002A0009FBF322F212F102F0027080F111D211D56
:1002B000311D43E0000F111F221F331F4A95D1F754
:1002C000B801C9011F910F910895CF92DF92EF926B
:1002D000FF92CF93DF936B017C01CCDFEB010DC06C
:1002E000C9DF6C1B7D0B683E734038F081E0C81A93
:1002F000D108E108F108C851DC4FC114D104E10470
:10030000F10471F7DF91CF91FF90EF90DF90CF90E4
:100310000895789483B7826083BF83B7816083BF79
:1003200089B7816089BF1EBC8EB582608EBD8EB5D7
:1003300081608EBD8FB581608FBD85B5846085BDC0
:1003400085B5806485BD329A319A309A379A1AB849
:100350000895DFDFACDEC0E0D0E0ADDE2097E9F34A
:080360004FDEFBCFF894FFCF44
:020368000D0086
:00000001FF
